:020000040000FA
:04080000F4EF2AF0F7
:080808005DEF04F000000000A8
:1008100000000000000000002A6ED8CF2BF0E0CFCF
:100820002CF00001E9CF32F0EACF2DF0E1CF2EF02D
:10083000E2CF2FF0D9CF30F0DACF31F0F3CF39F06B
:10084000F4CF3AF0FACF3BF000C034F001C035F0FD
:1008500002C036F003C037F004C038F09DAA34EF70
:1008600004F09EBA6DEF06F09DA83AEF04F09EB832
:1008700052EF06F034C000F035C001F036C002F08F
:1008800037C003F038C004F0338E32C0E9FF2DC00A
:10089000EAFF2EC0E1FF2FC0E2FF30C0D9FF31C018
:1008A000DAFF39C0F3FF3AC0F4FF3BC0FAFF2A5029
:1008B0002CC0E0FF2BC0D8FF10003E6ED8CF3FF019
:1008C000E0CF40F00001E9CF46F0EACF41F0E1CFC0
:1008D00042F0E2CF43F0D9CF44F0DACF45F0F3CF86
:1008E0004DF0F4CF4EF0FACF4FF000C048F001C009
:1008F00049F002C04AF003C04BF004C04CF09DA088
:1009000085EF04F09EB08FEF06F0A0A28BEF04F00D
:10091000A1B20FEF06F048C000F049C001F04AC094
:1009200002F04BC003F04CC004F0478E46C0E9FF14
:1009300041C0EAFF42C0E1FF43C0E2FF44C0D9FF2B
:1009400045C0DAFF4DC0F3FF4EC0F4FF4FC0FAFFC1
:100950003E5040C0E0FF3FC0D8FF100095908C9003
:1009600095928C9295948C9495968C9695988C985B
:100970000301035359E0010E035D026F036A025144
:10098000F40FE96E020E0320EA6EEFCF01F301B916
:1009900002D0899801D08988929801B102D08A96B4
:1009A00001D08A86939601B302D08D9401D08D84B4
:1009B000969401B502D0899401D08984929401B7AC
:1009C00002D0899601D08986929601BB02D0899A7D
:1009D00001D0898A929A01BD02D08D9001D08D807C
:1009E000969001BF02D08D9201D08D8296920251D5
:1009F000FB0F19E2050F000164EF05F095908C8064
:100A0000030111D095928C8203010DD095948C84B2
:100A1000030109D095968C86030105D095988C88A2
:100A2000030101D0030148D0116A93869684928411
:100A300092869288938E938C9382928A96809682E5
:100A4000130E006E002EFED700D0938681B602D022
:100A5000118022D0968484B402D011821DD0928459
:100A600080B402D0118418D0928680B602D011864C
:100A700013D0928880B802D011880ED0938E81BE98
:100A800002D0118A09D0938C81BC02D0118C04D081
:100A9000938281B201D0118E1290928A80AA01D0E5
:100AA00012801292968084A001D0128212949682B3
:100AB00084A201D012841288032B0351050801E29D
:100AC000036B000114EF06F0E824F76AF736E30F32
:100AD000F66E0A0EF7220A00F550FA6E0800F5507D
:100AE000F96EFC09040A0C0A140A1C0A939A8A8AF1
:100AF000959A8C8AC69A110EC66EC79CC79EC69ED2
:100B0000949A8B9A94968B869488929AC68A0301BB
:100B1000D95303E1939A8A9A02D0959A8C9A00014C
:100B2000000CC9CFD8F3000CFCDFD7C3C9FFC7A0A6
:100B3000FED7000C0301C16BC035C16FC137C1378F
:100B4000F80EC117C19DBFB1C18DC1C3D7F300015C
:100B5000EBDF000CE6DFC96AC7A0FED7C9CF01F002
:100B6000000C0301C06BC16BBF51000103E0040A1C
:100B700001E007D0EFDF0301C16B01C0C0F321D05A
:100B80000001E8DF01C0C2F3030E0301C46FC00E11
:100B9000C36F010EC325016E000EC42101C0E9FF21
:100BA000EA6EC2C3EFFF0001D5DF01C0C2F3030E3E
:100BB0000301C46FC00EE96EC4C3EAFFC2C3EFFFF6
:100BC00000D0C0C301F0C1C302F00001000C939A31
:100BD0008A8A959A8C8A949A8B9A94968B86948812
:100BE000C69A000C0301D96B000180DF010E0301DE
:100BF000BF6F030EC06F00019DDF030E0301BF6FC7
:100C00000001AFDF02C08EF401C08DF4E0DF04010B
:100C10008DC401F08EC402F0000143EF06F0FC0E1B
:100C2000B36EB26AA1929AD603010653D8A40607FE
:100C30000751081105E00751D8B40807070703D08A
:100C40000201F98503010A5302E00A0705D00201F7
:100C5000F98D240E03010A6F095302E0090705D03C
:100C60000201F98BB70E0301096F0201F9A302D04B
:100C7000F98314D0939A8A9A948882B80CD0F9A9EF
:100C800008D00001AFD702C005F301C004F3020190
:100C9000F987F99901D0F989939A8A8AA19200017A
:100CA0008BEF04F003017B5310E07751772B036A3D
:100CB000160FE96E030E0320EA6EEFCFADFF7B0740
:100CC00077513E0801E2776B02D010979D98060E8F
:100CD0001E6E9E9800013AEF04F0AECF8AF4AB503E
:100CE000060B04E0AB6A900EAB6E16D003017A518E
:100CF0001F080FE3036A7851560FE96E030E0320B5
:100D0000EA6E8AC4EFFF782B7A2B78511E0801E235
:100D1000786B060E1E6E00019E9A3AEF04F0030EE9
:100D200004018E6FB10E8D6F010E8D25016E000EC8
:100D30008E2101C0E9FFEA6EEFCFCFFF030E8E6F69
:100D4000B10EE96E8EC4EAFFEFCFCEFF9E90949273
:100D50008B729E9000018BEF04F09FEF09F0A09240
:100D60000201F983A0820001000CA0920201F99314
:100D7000A0820001000CF3DF3D6AF2BC3D8CF29CC6
:100D8000F2BE3D8EF29E010E0301D96F0001AEDE70
:100D90003DBCF28C3DBEF28ECAC3D7F3C5DE030163
:100DA000CA51030803E0CA51AB0823E1030ED26F16
:100DB000CB0ED16F010ED125016E000ED221036E34
:100DC00001C0E9FFEA6EEFCFD3F3D3C3D7F300013D
:100DD000ABDE030E0301D26FCB0ED2C303F0E96E7C
:100DE000D2C3EAFFEFCFD3F3D3C3D7F300019CDE26
:100DF0000301CA51030815E1CF51CF07000A11E0E2
:100E00000001A8DE01C0D0F30301CDC3E9FFCEC3CA
:100E1000EAFFD0C3EFFFD051A927CD2BD8B4CE2BFA
:100E2000EBD70001D4DEA1DF000CAB0E0301CA6FCB
:100E3000CC6BCB6B030ECE6FB80ECD6F010ECF6FA8
:100E4000000199DF0301B8C301F00001000CEDDFE0
:100E5000950E006E002EFED700D0A0EF09F07FDFC8
:100E60003D6AF2BC3D8CF29CF2BE3D8EF29E010EBC
:100E70000301D96F00013ADE3DBCF28C3DBEF28E1B
:100E8000CCC3D7F351DE0301CC2D02D0959C8C8CC2
:100E9000CC51020A000105E0400A03E09A0A01E091
:100EA00024D0030E0301D56FCD0ED46F010ED425CF
:100EB000016E000ED521036E01C0E9FFEA6EEFCF8F
:100EC000D6F3D6C3D7F300012FDE030E0301D56F8F
:100ED000CD0ED5C303F0E96ED5C3EAFFEFCFD6F34D
:100EE000D6C3D7F3000120DE00D00301CC510208A5
:100EF00015E1D151D107000A11E0CFC3E9FFD0C3FA
:100F0000EAFFEFCFD3F3D3C3D7F300010DDE030124
:100F1000D351A927CF2BD8B4D02BEBD7000157DE64
:100F200024DF959C8C9C0301CC51020A000109E04E
:100F3000400A07E09A0A05E01F0A03E0C60A01E03A
:100F40002BD00301D281D2A125D0000108DF3D6A58
:100F5000F2BC3D8CF29CF2BE3D8EF29E1D0E030152
:100F6000D96F0001C3DD3DBCF28C3DBEF28E050E93
:100F70000301D76F0001D8DDEDDD01C0D3F303011C
:100F8000D351010BD291E8B0D281000120DEEDDE19
:100F90000301D9D7000100D0000C060E0301CC6F6D
:100FA000CE6BCD6BD06BCF6BD16B000158DF0301E3
:100FB000B76B010ECC6FCE6BCD6B030ED06FB70E3F
:100FC000CF6F010ED16F00014ADF050E0301CA6F1A
:100FD000CC6BCB6B030ECE6FB70ECD6F010ECF6F08
:100FE0000001C9DE22DF01C0B7F30301B7C301F07E
:0C0FF0000001A1EF09F094928B92000C1C
:0E100200050E0301BA5F09E3030EEA6EBA0E93
:10101000E96EEF5003E000D0EF2EFED7000123EF82
:1010200008F00301B86BB851030807E3FF0ED76F50
:1010300000017ADD0301B82BF6D7030EB96FC70E96
:10104000BA6F0001DED70301B92FF9D70001000CF8
:101050003D6AF2BC3D8CF29CF2BE3D8EF29E0301D5
:10106000D96B000143DD3DBCF28C3DBEF28ED9DF71
:101070003D6AF2BC3D8CF29CF2BE3D8EF29E010EAA
:101080000301BF6F040EC06F000154DD3DBCF28C44
:101090003DBEF28E3D6AF2BC3D8CF29CF2BE3D8EAE
:1010A000F29E040E0301BF6F00015BDD3DBCF28CBC
:1010B0003DBEF28E01C0B7F38ADD0301B7C301F074
:1010C000000135EF09F00301BB6BBC6BB72D1CD0E1
:1010D000B839BC6FBB6BBC37E00EBC17B939006EBA
:1010E00000360036C00E00160050BB13BA51BB13B9
:1010F000BCC3BDF3BE6BBCC3D7F3000115DDBBC3DE
:10110000D7F312DD28D00301B751020820E1B83926
:10111000BC6FBB6BBC37E00EBC17B939036E026AFB
:10112000F00E03160250BB130350BC13BA51BB138D
:10113000BB89070EBC13BCC3BDF3BE6BBCC3D7F3E6
:101140000001F2DCBBC3D7F3EFDC05D00301B8C369
:10115000D7F30001E9DC000C3D6AF2BC3D8CF29C47
:10116000F2BE3D8EF29E010E0301BF6FB7C3C0F306
:101170000001E0DC3DBCF28C3DBEF28E3D6AF2BC6B
:101180003D8CF29CF2BE3D8EF29EB7C3BFF3E9DC0C
:101190003DBCF28C3DBEF28E02C0B9F301C0B8F383
:1011A0000301B8C301F0B9C302F00001000C3D6AAD
:1011B000F2BC3D8CF29CF2BE3D8EF29E0301D96BD7
:1011C000000194DC3DBCF28C3DBEF28E2ADF3D6A0C
:1011D000F2BC3D8CF29CF2BE3D8EF29E0301BF6BD1
:1011E000020EC06F0001A6DC3DBCF28C3DBEF28E4B
:1011F000020E0301B76FB86BB96BBA6B000163DF06
:10120000020E0301B76F0001A7DF02C00CF301C09B
:101210000BF33D6AF2BC3D8CF29CF2BE3D8EF29E19
:101220000301BF6B010EC06F000184DC3DBCF28C7A
:101230003DBEF28E010E0301B76FB86BB96B0B0E9A
:10124000BA6F000140DF010E0301B76F000184DFB8
:1012500002C00CF301C00BF3BADC38EF09F0020155
:10126000F983959E8C9E0001F3D601C00DF39FD7A4
:101270000201F9930001A2EF09F0A092B00EB16E45
:10128000A282FC0EB36EB26AB180A082A3EF09F015
:10129000C36AC46A0E0EC16E92809282030EC26E41
:1012A000A4EF09F09D98030110977B6B776B77C3D0
:1012B00076F3BF6BBF513F080AE3036ABF51160FB5
:1012C000E96E030E0320EA6EEF6ABF2BF3D700012D
:1012D000000C03017A6B796B79C378F3B96BB95160
:1012E0001F080BE3036AB951560FE96E030E032082
:1012F000EA6EFF0EEF6EB92BF2D70001000C948C52
:10130000948EAC6AAB6A900EAB6EB886AC84B06A51
:10131000190EAF6EC7DFDDDF0301156B146B9D8AFD
:101320000001000C930ED06EF28CF28E000C140EA5
:101330000301126F1B6A0001A8EF09F00ED587D5D3
:101340002CD68DD79AD7A4D756DED9DFEBDFEFD7CF
:10135000E9EF0AF0B6C3FBF20201FB511C0A0001DF
:1013600013E0010A15E0040A16E0030A14E0040A77
:1013700015E00B0A19E01F0A17E02A0A15E0270AF0
:1013800017E00F0A15E018D0040E0201FF6F18D005
:101390000201FF6B15D00201FF6B12D00C0E02018F
:1013A000FF6F150EFB6F0CD0080E0201FF6F08D007
:1013B000020E0201FF6F04D0040E0201FF6F00D085
:1013C0000001000C0301CD51CF03F3CF01F0F4CFA6
:1013D00000F0D003F3500026CE51CF03F35000208D
:1013E000026E0001000C0301CC6BC8C3CBF3CCC36D
:1013F000CEF3C8C3CDF3D06B050ECF6F0001E2DF93
:10140000040E0301015CCE6F000E0258CF6FCE3583
:10141000C96FCF35CA6FC937CA37C937CA37C93755
:10142000CA37C937CA37C937CA37C937CA37800E2A
:10143000C917C9C301F0CAC302F00001000C295248
:1014400003E02950090801E22CD029C0C8F3CBDF02
:1014500002C0B7F301C0B6F3030E0301CA6FB7C3EE
:10146000CCF3B6C3CBF3CE6FE80ECD6F7D0ECF6F4E
:10147000000181DC800E0301B625B86F000EB72194
:10148000B96FBB6B510EBA6F030ECA6FB9C3CCF301
:10149000B8C3CBF3BBC3CEF3BAC3CDF3CF6B00015C
:1014A0006ADC000C680E0301C36F040EC46FFF0EEC
:1014B000C26FC16BC15108080DE3C4C303F0C3512F
:1014C000C32BD8B4C42BE96E03C0EAFFEF50C22788
:1014D000C12BF0D7C2C301F00001000C680E03015C
:1014E000B66F040EB76F030ECA6FCC6BCB6B040ED6
:1014F000CE6F680ECD6F0A0ECF6F00013CDCD2DFDD
:1015000001500401715D02E0000E01D0010E016E78
:101510000001FCEF0AF00301C36703D0C46702D0E7
:1015200007D0C42BC2C3EEFFC32FFCD7C42FFAD7FA
:101530000001000C020EEA6EF40EE96E0301C26BAC
:10154000C46B040EC36F0001E6DF000C0301C36B24
:10155000C35103081CE3036AC351F40F016E020E6A
:10156000032203C0C5F3C251040DF350C325036A1F
:10157000580FE96E020E0320EA6EEFCFC8F3C5C321
:10158000EAFF01C0E9FFC8C3EFFFC32BE1D70001A9
:10159000000CD0DFC1C3C2F3D9DF0B0E0201FB6F19
:1015A0000001000C030EEA6EC20EE96EEF500EE071
:1015B000030E016E006A002EFED7012EFBD7E30E4C
:1015C000006E002EFED70000EF2EF2D7000C256A29
:1015D000B5D6285202E1265209E0286A266A1C0E76
:1015E0000301B66F0001B6DE2ADF05D01D0E030130
:1015F000B66F0001AFDE72D7015205E004016E51F3
:101600001E0815E20001120E0301C16F0001C1DFC7
:101610000C0E0301B66FFA0EC26F0001C3DF0301A7
:10162000B62FF9D71D0EB66F000194DE04016E517E
:101630001E08D8A06E6B295203E02950090802E267
:10164000010E296E000160EF2CF00201F9AB06D00B
:10165000A092F99BA082010E016E02D0000E016ED5
:10166000000164EF2CF0F29CF29EF2BEFDD71E52F8
:10167000D8A41E061E520DE103011553D8A402D0B2
:10168000000107D01553D8A402D0000102D00001F8
:1016900036DEC00EF21274EF2CF00201F9AD06D066
:1016A000A092F99DA082010E016E02D0000E016E83
:1016B00000017BEF2CF00301B35302E0B30703D02A
:1016C000B7C3B3F3107D0001000C0301B66BA09209
:1016D000B69312B0B683B69112B2B681B59512B474
:1016E000B585B59712B6B587A08293988A889490ED
:1016F0008B9012B607D010AF05D0220EC16F00013B
:1017000048DF0301109F12B6108F12A404D012A656
:1017100002D0108D20D0B651FC0F1DE2040F000145
:10172000C4EF0BF0010E0301B76F0001C4DF03012A
:1017300012D0130E0301B76F0001BDDF03010BD000
:10174000090E0301B76F0001B6DF030104D00301E6
:10175000109D01D0030110BD02D08A9401D08A846B
:10176000939412A404D012A602D01F980AD0B651A6
:10177000030A000101E002D01F8802D01F9800D0A8
:10178000030100017FEF2CF0F2CF33F0F29CF29EC8
:10179000E824F76AF736B30FF66E170EF7220A0041
:1017A000F550FA6E0800F55033BCF28C33BEF28E61
:1017B000F96E321740174E172417A0920201F9A7AD
:1017C00009D0F99705C31AF004C319F0A082010EDD
:1017D000016E03D0A082000E016E0001000C030117
:1017E0009A511A5C0BE303E11950995D07E2995194
:1017F000195CB56F9A511A58B66F06D01950995D99
:10180000B56F1A509A59B66FB65303E1B5510F5DD3
:101810000AE20E51050802E3060E0E6F1AC09AF393
:1018200019C099F303D00E53D8A40E070E5302E04B
:10183000000E01D0010E016E0001000C04017A6B54
:101840007B6B010E7C6FDA6AD96A030E7F6FDF0E45
:101850007E6F030EEA6EE30EE96E7FC4E2FF7EC484
:10186000E1FF7CC47DF4D890E550EE02F3507A237A
:10187000F4507B237D2FF7D77AC4DEFF7BC47AF444
:101880007B6BD8B07B2B7E2BD8B47F2B7C2B7C51F1
:101890000508DFE1000164EF0CF00301DE6BDD6B96
:1018A000DAC3DCF3D9C3DBF3DEC3E2F3DDC3E1F378
:1018B000DAC3E0F3D9C3DFF3E66BE56BD8C3E4F337
:1018C000D7C3E3F30001BAD7000C006A016A026AC9
:1018D000036A0401826B836B846B856B8151801179
:1018E0007F117E112CE0200E866FD8907A377B37DF
:1018F0007C377D3782378337843785378151855DE3
:1019000008E18051845D05E17F51835D02E17E51F4
:10191000825D0FE37E51825F7F51D8A07F3D835F60
:101920008051D8A0803D845F8151D8A0813D855FE2
:10193000D8800036013602360336862FD6D7040EFD
:10194000EA6E820EE96E0001C9EF0CF0D890030137
:10195000E131E36FE031E26FE251DC25E46FE35106
:10196000DD21E56F000EDE21E66F000EDF21E76F5F
:10197000E8CF7DF4E6C37CF4E5C37BF4E4C37AF4FA
:101980000401816B806BE1C37FF4E0C37EF400014E
:101990009CD7000CCEC3D8F3CDC3D7F3D0C3DAF3B2
:1019A000CFC3D9F37ADF03C0D6F302C0D5F301C0A9
:1019B000D4F300C0D3F3D6C3DFF3D5C3DEF3D4C36F
:1019C000DDF3D3C3DCF3D2C3E1F3D1C3E0F3BEDF75
:1019D00003C0D6F302C0D5F301C0D4F300C0D3F3E3
:1019E0000301D3C301F0D4C302F00001000C0401D1
:1019F0006D51020855E2FF0A03E16C51200850E2E4
:101A00006FA127D0030E0301CE6FE80ECD6F030E3A
:101A1000D06FE80ECF6F6DC4D2F36CC4D1F3000168
:101A2000B9DF02C069F401C068F40301CE6B640E33
:101A3000CD6F2B0ED06F110ECF6F6DC4D2F36CC46F
:101A4000D1F30001A7DF02C06BF401C06AF426D015
:101A500004010301CE6B640ECD6F230ED06F6E0EAA
:101A6000CF6F6DC4D2F36CC4D1F3000193DF02C019
:101A700069F401C068F4030E0301CE6FE80ECD6F68
:101A8000030ED06FE80ECF6F6DC4D2F36CC4D1F3E8
:101A9000000180DF02C06BF401C06AF44DD0040184
:101AA0006FA126D0030E0301CE6FE80ECD6FD06B71
:101AB000C80ECF6F6DC4D2F36CC4D1F300016ADFDE
:101AC00002C069F401C068F40301CE6B640ECD6FEF
:101AD000080ED06F9D0ECF6F6DC4D2F36CC4D1F3DE
:101AE000000158DF02C06BF401C06AF425D0040184
:101AF0000301CE6B640ECD6F070ED06F160ECF6F45
:101B00006DC4D2F36CC4D1F3000144DF02C069F4A8
:101B100001C068F4030E0301CE6FE80ECD6FD06BE9
:101B2000C80ECF6F6DC4D2F36CC4D1F3000132DFA5
:101B300002C06BF401C06AF483EF0FF00301C0919F
:101B40000001B0DC01C071F40A0E0301AA6FC0B13C
:101B500054D0AA07AA5301E150D0060ECC6FCE6B29
:101B6000CD6BD06BCF6BD16B00012FEC07F0020E69
:101B70000301CC6FCE6BCD6B040ED06F680ECF6FB0
:101B80000A0ED16F00012FEC07F00301BF6BBE6B93
:101B9000040EC26F680EC2C3BDF3BC6FC0810A0ED3
:101BA000B96FB951B907000A27E0BFC303F0BE51AE
:101BB000BE2BD8B4BF2BC16F03C0C2F3030ECA6FD4
:101BC00003C0CCF3C1C3CBF3CE6FBA0ECD6F010E01
:101BD000CF6F0001BBEC06F00301BCC3E9FFBDC33E
:101BE000EAFFEFCFBBF3BB51BA5D02E0C091B96B26
:101BF000BC2BD8B4BD2BD5D7AAD7C0B10ED0170EE9
:101C0000C16F0001C6DC040E0301C16FFA0EC26F82
:101C10000001C8DC0301C12FF9D7000EC0B1010ECD
:101C2000016E0001000C1F0E0201FB6FB6C3FFF234
:101C3000B5C3C2F300018ADCABEF0FF00301BD5165
:101C4000BF19800BC16FBDAF05D0BC1FBD1FBC2B22
:101C5000D8B4BD2BBFAF05D0BE1FBF1FBE2BD8B49D
:101C6000BF2B016A026A006A036ABF5102E1BE51DA
:101C700018E0100EC06FD890BC37BD370036033661
:101C8000BF51035C02E1BE51005C07E3BE51005E40
:101C9000D8A00306BF51035ED88001360236C02F9C
:101CA000EAD7C1AF05D0011E021E012AD8B4022A0C
:101CB0000001DBEF0EF004016FA105D069C4B8F399
:101CC00068C4B7F304D06BC4B8F36AC4B7F3135055
:101CD000195C006E14501A5800C0B5F30301B66FBA
:101CE000B6BF01D009D00201F9810301B51FB61FAB
:101CF000B52BD8B4B62B03D00201F9910301B6C3BA
:101D0000CEF3B5C3CDF3B8C3D0F3B7C3CFF3030E4F
:101D1000D26FE80ED16F00013DDE02C018F001C0A5
:101D200017F0030E0301A417A451A42B006ED89042
:101D300000360050036A9C0FE96E030E0320EA6E22
:101D400018C0ECFFED5217C0EFFF9B51030806E3EC
:101D50009B2B18C054F217C053F231D00201546BC0
:101D6000536B0301B96BB951030813E3D890B9352C
:101D7000036A9C0FE96E030E0320EA6EECCF03F0BA
:101D8000ED52EF5002015327035054230301B92BA6
:101D9000EAD7020E020153250301BA6F000E0201B9
:101DA00054210301BB6FBD6FBAC3BCF3BF6B040EFC
:101DB000BE6F000143D702C054F201C053F20201CA
:101DC00054BF05D0545305E15351030802E3546B4B
:101DD000536B04016FA110D054C2CEF353C2CDF3A4
:101DE0000301D06B050ECF6F0001E2EC09F002C0D9
:101DF00054F201C053F204010001000C04016FA170
:101E000002D0320E01D00A0E18AE03D000AE09D0B7
:101E100002D000BE04D0185202E1175C02E3000EAB
:101E200001D0010E016E0001000C0301126B0001D4
:101E3000C2EF0FF002015751FB0FD8B0A6D0050F2B
:101E40000001C8EF0FF0070E0301B66F0001AAEC06
:101E500009F03C0E03010E6F010E0F6F0201576F68
:101E60001F9093D0AADC015211E0B9DC01520EE0C0
:101E70001AC014F019C013F0030E0301C16F000162
:101E8000C9EC0AF0020E0201576F000102017DD079
:101E900094DC01521AE0960E1324016E000E1420F9
:101EA000036E03501A5C11E303E11950015C0DE26B
:101EB000080E0301B66F0001AAEC09F03C0E030105
:101EC0000E6F030E0201576F000102015ED075DC38
:101ED000015247E084DC015244E0960E1324016E67
:101EE000000E1420036E03501A5C1EE303E1195028
:101EF000015C1AE21350195C04016C6F14501A58FB
:101F00006D6F000174D51ADE040E0201576F200EAA
:101F10000301B66F0001AAEC09F0020E03010F6F76
:101F20001F9A9B6B1DD00001960E135C006E000E75
:101F30001458036E00C001F01A50035C12E303E171
:101F40000150195C0EE21F80160E0301B56F0C0ED6
:101F5000B66F000168D6020E03010F6F1F9A129E22
:101F60000001020112D029DC01520CE0A4DE46DFA0
:101F7000015204E10201F9A106D000011F9E1F9A3F
:101F8000129E53D7020101D0020100019BEF15F010
:101F9000F2CF33F0F29CF29EE824F76AF736BB0FDB
:101FA000F66E1F0EF7220A00F550FA6E0800F55083
:101FB00033BCF28C33BEF28EF96E461E641E901E48
:101FC000CE1E661F0301E051DC25006EE151DD21CC
:101FD000016EE251DE21026EE351DF21036E00014A
:101FE000000C016A026A006A036A0301D95102E126
:101FF000D85118E0100EDA6FD890D637D7370036A0
:102000000336D951035C02E1D851005C07E3D85193
:10201000005ED8A00306D951035ED880013602368F
:10202000DA2FEAD70001000C020E0301C56FC66B60
:10203000050EC76FC86B04016FA107D00301C66B03
:102040000C0EC56FC86B190EC76F49C4D7F348C4CF
:10205000D6F3C8C3D9F3C7C3D8F30001C2DF02C0A7
:1020600047F401C046F447C4CEF346C4CDF3C8C319
:10207000D0F3C7C3CFF3E2EC09F002C047F401C0CC
:1020800046F4000CD4C3D7F3D3C3D6F30301D96B02
:10209000D5C3D8F30001A5DF02C003F002C002F0EF
:1020A00063EF10F0050E0301D26F04016FA103D09E
:1020B000190E0301D26FD1C3D4F3D0C3D3F3D2C36B
:1020C000D5F30001DFD70250000C0301C66BC651E7
:1020D0004F080AE3036AC651E80FE96E030E0320B6
:1020E000EA6EEF6AC62BF3D70001000C47C491F3E8
:1020F00046C490F3030194519225C56F95519321E5
:10210000C66FC651915D0FE303E19051C55D0BE2CF
:102110009251905D0401446F030193519159040160
:10212000456F05D0030195C345F494C344F40301FE
:1021300092519025976F93519121986F04014451CA
:102140000301975DC76F0401455103019859C86F9A
:10215000D16FC7C3D0F30001A5DF0150FF0A510FB3
:102160000401436F0001000C040144510301CB5DE5
:10217000CD6F040145510301CC59CE6FCEC3D1F3CD
:10218000CDC3D0F300018EDF01C0CFF30401435172
:102190000301CF27CFC301F00001000C040145511A
:1021A0000301C95D28E305E1040144510301C85D51
:1021B00022E3C951985D1FE303E1C851975D1BE31A
:1021C000C9C3CCF3C8C3CBF30001CEDF01C0CAF34F
:1021D000036A0301CA51E80FE96E030E0320EA6E99
:1021E000EF3C01D008D0036ACA51E80FE96E030E34
:1021F0000320EA6EEF2A0001000C67DF0301C56BC4
:1022000004013A5305E139510301C55D1BE20401A4
:10221000D8900301C535026E036A03360250510F90
:10222000E96E000E0320EA6EECCFC7F3ED52EFCF5C
:10223000C6F3C7C3C9F3C6C3C8F30001AFDF0301C8
:10224000C52BDED70001000C0301BB6B040E966F9B
:10225000936BC80E926F956B0A0E946F04016FA179
:102260000AD0030E0301936FE80E926F956B320E46
:10227000946F180E966F0001D7DE0301C48104012C
:102280003A51010812E303E1395100080EE303015A
:1022900090510401465D05E1030191510401475D40
:1022A00003E00301C491040192D0392D03D03A53C5
:1022B000D8B48DD0030196519025016E000E912166
:1022C000036E03500401475D12E303E14651015CD4
:1022D0000EE2030190510401465D0301C26F91516A
:1022E000040147590301C36F010EBB6F1DD00301E9
:1022F0009651040146250301C56F000E04014721D4
:102300000301C66F915D10E303E19051C55D0CE2DE
:10231000040146510301905DC26F0401475103015E
:102320009159C36F020EBB6FBB5351E0C3C3D1F3CE
:10233000C2C3D0F30001B6DE01C0C1F30301C15135
:10234000040143254F0840E3500ED8800301C155D6
:10235000BD6F43C4BCF3BD51BC5D35E2C151BC256A
:10236000BE6FBCC3BFF3BB5102080CE14F0E0401AA
:102370004325D8800301BC55C06FC151C05DBE6FFD
:10238000C0C3BFF3036ABF51E80F016E030E0322FF
:1023900003C0C6F3036ABE51E80FE96E030E0320C3
:1023A000EA6EEFCFC7F3C6C3EAFF01C0E9FFC7C3B8
:1023B000EFFF036ABE51E80FE96E030E0320EA6ED9
:1023C000EF6ABC2BC8D703D000017FDE03010001F8
:1023D0008DDE0301C4A108D054C2C9F353C2C8F3AF
:1023E0000001DCDE03D00301000107DF000C030164
:1023F000A651CC5D0EE303E1CB51A55D0AE2CC51C1
:10240000A85D07E303E1A751CB5D03E2010E016E76
:1024100002D0000E016E0001000C04016E51020892
:1024200005E3080E0301C66F03D004016EC4C6F3B2
:10243000320E040148250301CB6F000E040149212F
:102440000301CC6FCE6FCBC3CDF3D06BC6C3CFF33C
:10245000D26B640ED16F0001CAEC0CF002C0C5F360
:1024600001C0C4F30301C4510401485D0301A56F19
:10247000C551040149590301A66FC45104014825FF
:102480000301A76FC551040149210301A86F04018D
:102490003A5101083BE303E13951000837E30301F6
:1024A000C86BC76BC85104013A5D2FE308E139518D
:1024B0000301C75DD8A002D0040127D00401D89041
:1024C0000301C735026EC835036E0250510FE96E25
:1024D000000E0320EA6EECCF03F0ED52EFCFC9F30C
:1024E00003C0CAF3CAC3CCF3C9C3CBF300017FDF77
:1024F000015205E004014C2BD8B44D2B000103011F
:10250000C72BD8B4C82BCED704010CD016C0CCF33F
:1025100015C0CBF300016BDF015204E004014C2B2A
:10252000D8B44D2B00010FEF14F004016051EE08F8
:102530000BE307E15F516B0807E303E15E512708F6
:1025400003E3010E016E02D0000E016E000110EFD8
:1025500014F00301D151CD5D006ED251CE59016E00
:10256000D351CF59026ED451D059036E0001000CE3
:102570001E0E0301DB6FD46BD36BD26B010ED16FD8
:10258000D0C3D8F3CFC3D7F3CEC3D6F3CDC3D5F3DF
:10259000D8C3D0F3D7C3CFF3D6C3CEF3D5C3CDF3CF
:1025A000D2C3DAF3D1C3D9F3D0C3DFF3CFC3DEF3A1
:1025B000CEC3DDF3CDC3DCF3DAC3E1F3D9C3E0F37B
:1025C0000001A6EC0CF003C0D0F302C0CFF301C0B1
:1025D000CEF300C0CDF3D2C3DAF3D1C3D9F3D0C365
:1025E000DFF3CFC3DEF3CEC3DDF3CDC3DCF30301F2
:1025F000E36BE26BDAC3E1F3D9C3E0F30001E2DCA1
:1026000001C0DAF300C0D9F30301D06BCF6BDAC39A
:10261000CEF3D9C3CDF3DA6B020ED96FD0C3DFF39B
:10262000CFC3DEF3CEC3DDF3CDC3DCF3DAC3E1F316
:10263000D9C3E0F30001A6EC0CF003C0D0F302C054
:10264000CFF301C0CEF300C0CDF3D0C3D4F3CFC3DA
:10265000D3F3CEC3D2F3CDC3D1F30301DB2F98D78D
:10266000D1C300F0D2C301F0D3C302F0D4C303F04E
:102670000001F6EF13F004013A5307E13951010864
:1026800004E3000E016E026EBFD060C4CCF35FC4E1
:10269000CBF35EC4CAF35DC4C9F30301C45308E1BC
:1026A00042C4CCF341C4CBF340C4CAF33FC4C9F322
:1026B000CCC3DFF3CBC3DEF3CAC3DDF3C9C3DCF3A2
:1026C0003AC4E1F339C4E0F30001A6EC0CF003C016
:1026D000C8F302C0C7F301C0C6F300C0C5F3C8C346
:1026E000CCF3C7C3CBF3C6C3CAF3C5C3C9F349C44C
:1026F000D8F348C4D7F349C4DAF348C4D9F34DEC4E
:102700000CF003C0C8F302C0C7F301C0C6F300C099
:10271000C5F30301C45317E1C8C3DFF3C7C3DEF336
:10272000C6C3DDF3C5C3DCF3E16B190EE06F000136
:10273000A6EC0CF003C0C8F302C0C7F301C0C6F397
:1027400000C0C5F30301C851CC5D28E30BE1C751BC
:10275000CB5D24E307E1C651CA5D20E303E1C55127
:10276000C95D1CE3CCC3D0F3CBC3CFF3CAC3CEF354
:10277000C9C3CDF3C8C3D4F3C7C3D3F3C6C3D2F31D
:10278000C5C3D1F30001E5DE03C0CCF302C0CBF337
:1027900001C0CAF300C0C9F306D00301000E016EE8
:1027A000026E040131D00301C45316E1CAC3CEF353
:1027B000C9C3CDF3CAC3D8F3C9C3D7F3DA6B190EB3
:1027C000D96F00014DEC0CF003C0CCF302C0CBF389
:1027D00001C0CAF300C0C9F3CCC3D0F3CBC3CFF35D
:1027E000CAC3CEF3C9C3CDF30001C2D603C0C8F338
:1027F00002C0C7F301C0C6F300C0C5F30301C5C3DF
:1028000001F0C6C302F004010001000C04013A53B8
:1028100004E13951010801E347D00001FED585D616
:10282000012C26D0010E0301C46F000124DF02C079
:1028300062F401C061F462C44FF461C44EF462C436
:10284000CEF361C4CDF30301D06B640ECF6F49C4E6
:10285000D2F348C4D1F30001CAEC0CF002C064F416
:1028600001C063F464C44BF463C44AF404011CD093
:102870000301C46B0001FFDE02C04FF401C04EF43F
:102880004FC4CEF34EC4CDF30301D06B640ECF6FB3
:1028900049C4D2F348C4D1F30001CAEC0CF002C021
:1028A0004BF401C04AF404010001000C0401395149
:1028B0003A11D8B4CBD0D8904931036E4831026E6A
:1028C000016E020154AF03D003AE0AD002D003BEA2
:1028D00008D05451035C05E303E10150535D01E26C
:1028E00023D11F8A54C216F053C215F00401502B95
:1028F000D8905035026E036A03360250510FE96ECC
:10290000000E0320EA6E16C0ECFFED5215C0EFFF7B
:1029100016C0D8F315C0D7F316C0DAF315C0D9F333
:1029200000014DEC0CF003C0BAF302C0B9F301C0D2
:10293000B8F300C0B7F360C4DFF35FC4DEF35EC476
:10294000DDF35DC4DCF3BAC3E3F3B9C3E2F3B8C3A8
:10295000E1F3B7C3E0F3E2EC0FF003C060F402C0B0
:102960005FF401C05EF400C05DF4BAC3DFF3B9C325
:10297000DEF3B8C3DDF3B7C3DCF30301E16B190E7B
:10298000E06F0001A6EC0CF003C0BAF302C0B9F38B
:1029900001C0B8F300C0B7F342C4DFF341C4DEF3B3
:1029A00040C4DDF33FC4DCF3BAC3E3F3B9C3E2F3DD
:1029B000B8C3E1F3B7C3E0F3E2EC0FF003C042F4B5
:1029C00002C041F401C040F400C03FF40401392BBF
:1029D000D8B43A2B3EC4DFF33DC4DEF33CC4DDF390
:1029E0003BC4DCF30301E36BE26B16C0E1F315C0FB
:1029F000E0F30001E2EC0FF003C03EF402C03DF44E
:102A000001C03CF400C03BF43EC4DFF33DC4DEF340
:102A10003CC4DDF33BC4DCF33AC4E1F339C4E0F376
:102A2000A6EC0CF001C049F400C048F473C458F49B
:102A300072C457F474C459F475C45AF476C45BF480
:102A400077C45CF401DCE2DE6ED004011F8A54C25C
:102A500016F053C215F0506B16C052F015C051F06D
:102A60003E6B3D6B16C03CF415C03BF416C0D8F36A
:102A700015C0D7F316C0DAF315C0D9F300014DEC39
:102A80000CF003C0BAF302C0B9F301C0B8F300C040
:102A9000B7F3BAC360F4B9C35FF4B8C35EF4B7C3A5
:102AA0005DF4BAC3DFF3B9C3DEF3B8C3DDF3B7C374
:102AB000DCF30301E16B190EE06F0001A6EC0CF0F2
:102AC00003C0BAF302C0B9F301C0B8F300C0B7F352
:102AD000BAC342F4B9C341F4B8C340F4B7C33FF436
:102AE00004013A6B010E396F16C049F415C048F461
:102AF0004D6B4C6F73C452F472C451F474C453F4EC
:102B000075C454F476C455F477C456F4000124EC2B
:102B100011F00401626B616B4F6B4E6B646B636B06
:102B20004B6B4A6B000102010001E2EF15F012AE9F
:102B300003D01AEF0FF046D0DDEC0BF0015242E06B
:102B40001A5214E11950040811E303011153D8A4D7
:102B50001107115309E10A0E116F128A010EC16F9C
:102B60000001C9EC0AF003012ED000015BEC0EF06D
:102B7000FEEC0EF0015204E10201F9A103D00001C4
:102B80001F9E1F9A0001EFEC0BF001521BE0FEECC0
:102B90000EF0015202E112BA0BD01AC014F019C0A3
:102BA00013F012BA04D0128A0301126B00010AD08A
:102BB0001FBE08D00201F9A102D0000103D01F8E70
:102BC000000174D60301000181EF2CF0036A295043
:102BD000060FE96E000E0320EA6EEFCFF8F2020155
:102BE0000001000C030E0301C06FC591BE51260801
:102BF00015E2FF0A03E1BD510F0810E2BEC3D7F38F
:102C0000BDC3D6F3270ED96F100ED86F0001F1ECBB
:102C10000FF000C0BDF3030103C0BEF3BEC3D7F382
:102C2000BDC3D6F3D96B0A0ED86F0001F1EC0FF0DB
:102C300000C0BFF30301BEC3D7F3BDC3D6F3D96B46
:102C40000A0ED86F0001F1EC0FF002C0BEF301C014
:102C5000BDF3036A0301C051C10F016E030E0322CD
:102C600003C0C7F3036ABF51060FE96E000E0320CD
:102C7000EA6EEFCFC8F3C7C3EAFF01C0E9FFC8C3DC
:102C8000EFFFC007C0510308C9E2BC51060802E1CA
:102C9000CE0EC16FBC5100010BE0010A1DE0030A1A
:102CA00029E0010A2EE0070A35E0010A36E037D0B4
:102CB0000301C151ED0802E1C16B01D032D0C25114
:102CC000ED0802E1C26B01D02CD0C351ED0802E146
:102CD000C36B01D026D025D00301C151ED0802E11C
:102CE000C16B01D01ED0C251ED0802E1C26B01D010
:102CF00018D017D00301C289C151ED08D8B4C16BF7
:102D000010D004016FA103D00301C18902D00301D7
:102D1000C28907D00301C28904D0030102D0030194
:102D200000D0BC2D01D003D0BC5102080AE1020141
:102D3000F9A103D0020EF46F02D0C1C3F4F204D0A3
:102D40000301C1C3F4F20201C2C3F5F2C3C3F6F238
:102D5000C4C3F7F20001000C010E0301BA6FBB6B94
:102D6000BC6BBBC3BEF3BAC3BDF300013BDF020EB5
:102D70000201F86F00018EEF17F00301BF6BBCC3B7
:102D8000BEF3BFC3CEF3BCC3CDF3D06B640ECF6F25
:102D90000001E2EC09F002C0C0F301C0BFF303017F
:102DA000BD510124016E000E0220036E026E00016F
:102DB000000C04016FA30CD074C4BCF375C4BDF344
:102DC0000001DBDF02C0BBF301C0BAF30BD004018A
:102DD00075C4BCF374C4BDF30001CFDF02C0BBF304
:102DE00001C0BAF3040E0301BC6FBBC3BEF3BAC388
:102DF000BDF30001F7DE000C9AEC0AF0036A020151
:102E0000FE51F40FE96E020E0320EA6E100EEF6E13
:102E1000000166EF18F00201F46BF56B0001D7EFCB
:102E200019F00201F66BF76B0001DBEF19F0CEDE53
:102E30000201FB511F0A000150E0030A54E0010A9D
:102E400052E01D0AD8B46CD0200AD8B470D0210A40
:102E5000D8B499D0030AD8B40BD1010AD8B411D18F
:102E6000040AD8B438D10F0AD8B44AD1020AD8B467
:102E70005CD11F0AD8B486D1060AD8B4ABD1050AF2
:102E8000D8B4E0D1020AD8B406D2100AD8B41BD202
:102E9000010AD8B429D2090AD8B438D2010AD8B460
:102EA00046D21A0AD8B467D2060AD8B48AD2080A17
:102EB000D8B493D2170AD8B4B6D2010AD8B4E3D2A0
:102EC000150AD8B4ECD2020AD8B4F4D21E0AD8B487
:102ED00007D30D0AD8B409D30AD30201FF5302E184
:102EE000010EFB6F07D30201FF51040808E2260E12
:102EF0000301C26F0001A6EC0AF010D00201FF51DD
:102F0000020802E2000128D7FF5303E0000151DF6D
:102F100005D00301C26B0001A6EC0AF00201EAD25F
:102F20000201FF5301E0E6D200C3FBF2E3D202014B
:102F3000FF51040808E20A0E0301C26F0001A6EC6B
:102F40000AF00201D7D254C2B6F353C2B5F304015A
:102F50006FA10AD0010E0301BC6FB6C3BEF3B5C3A7
:102F6000BDF300013FDE09D0020E0301BC6FB6C302
:102F7000BEF3B5C3BDF3000135DE0201FF5302E12C
:102F8000080EFF6FB7D21FAA11D016C0B6F315C036
:102F9000B5F30201FF5308E1020EFF6FFB6F000162
:102FA0009AEC0AF00201A6D205D0000154C2B6F391
:102FB00053C2B5F304016FA129D00201F9B109D0C0
:102FC00054BF12D05451270804E30EE153510F08A7
:102FD0000BE2F9A113D054BF07D0545103080EE3FC
:102FE00003E15351E7080AE3010E0301BC6FB6C3C6
:102FF000BEF3B5C3BDF30001F5DD06D0040E030139
:10300000C26F0001A6EC0AF028D004010201F9B158
:1030100009D054BF12D05451550804E30EE1535166
:10302000F0080BE2F9A113D054BF07D0545108089F
:103030000EE303E1535197080AE3020E0301BC6F4C
:10304000B6C3BEF3B5C3BDF30001CCDD06D0040E9C
:103050000301C26F0001A6EC0AF0FEEC0EF0015273
:1030600005E0030E0201FB6FFE6BFF6B020142D213
:103070000201FF5305E1020EFF6F010EFB6F3AD212
:1030800039D21FA809D0250E0301C26F0001A6EC9A
:103090000AF002012FD2000112BC09D00E0E03016A
:1030A000C26F0001A6EC0AF0020124D20001FEEC7E
:1030B0000EF0015203E1010E0201FB6F0201FF530A
:1030C00001E018D2020EFF6F000196D60201FE2B1E
:1030D000030EFE170FD20201FF51010804E20001A6
:1030E0009AEC0AF006D0140E0301C26F0001A6ECA0
:1030F0000AF00201FF5301E0FDD1020EFF6FFAD189
:103100000201FF51010804E200019AEC0AF006D026
:10311000030E0301C26F0001A6EC0AF00201FF5387
:1031200001E0E8D1020EFF6FE5D11FA404D00C0E20
:103130000201FF6F1F940201FF51080808E20A0E06
:103140000301C26F0001A6EC0AF015D00201FF5185
:1031500004080AE2030E0301BC6FFDC2BEF3FCC209
:10316000BDF300013FDD07D00301BC6BBE6BFAC2AB
:10317000BDF3000137DD0201FF5301E0BBD1080EB2
:10318000FF6FB8D10201FF51080808E20A0E0301DF
:10319000C26F0001A6EC0AF016D00201FF5104082C
:1031A00009E20301BC6BBE6BFAC2BDF300011ADD7C
:1031B0000AD00201030E0301BC6FFDC2BEF3FCC2C4
:1031C000BDF300010FDD0201FF5301E093D1080EB2
:1031D000FF6F90D1010E245CFB0F1DE2050F7DEF08
:1031E0001AF01AC0B9F319C0B8F315D069C4B9F30D
:1031F00068C4B8F310D06BC4B9F36AC4B8F30BD089
:1032000014C0B9F313C0B8F306D00301B96B55C2AB
:10321000B8F3000100D00201FF530AE0060E0301DB
:10322000BC6FBE6B24C0BDF30001DCDC09D0020121
:103230000301BC6BB9C3BEF3B8C3BDF30001D2DC5C
:10324000020158D10201FF51020808E2090E0301F0
:10325000C26F0001A6EC0AF017D0020104016FA1B1
:103260000AD0010E0301BC6FFDC2BEF3FCC2BDF368
:103270000001B8DC09D0020E0301BC6FFDC2BEF331
:10328000FCC2BDF30001AEDC0201FF5301E032D10C
:10329000040EFF6F2FD10201FF51020807E20B0E4F
:1032A0000301C26F0001A6EC0AF006D01A0E03015A
:1032B000C26F0001A6EC0AF00201FF5301E01AD12F
:1032C000040EFF6F17D10301BC6B3AC4BEF339C4BF
:1032D000BDF3000187DC040E0201FF6FFB6B050EDE
:1032E0000301006F020106D1030E0301BC6F49C444
:1032F000BEF348C4BDF3000175DC080E0201FF6F88
:10330000FB6B060E0301006F0201F4D00201FF53B4
:1033100008E01B0E0301C26F0001A6EC0AF005D005
:1033200002010D0EFB6F040EFF6F0201E3D076C4A5
:10333000BCF377C4BDF321DD02C0B6F301C0B5F321
:103340000201FF51020805E2040E0301B76F09D024
:103350000201050E0301B76F0201FF5302E1040EE3
:10336000FF6FB7C3BCF3B6C3BEF3B5C3BDF3000173
:1033700039DC0201BFD021C0BCF323C0BDF3FDDCAA
:1033800002C0B6F301C0B5F30201FF5101080BE220
:10339000040E0301BC6FB6C3BEF3B5C3BDF3000199
:1033A00021DC09D002011FB204D0000134D503D0C2
:1033B0000201000136D50201FF5302E1040EFF6F46
:1033C00099D00201FF5308E01C0E0301C26F0001F7
:1033D000A6EC0AF002018ED0000104016FA30CD00C
:1033E00074C4BCF375C4BDF30001C7DC02C0B6F3FE
:1033F00001C0B5F30BD0040175C4BCF374C4BDF3B4
:103400000001BBDC02C0B6F301C0B5F3040E03013A
:10341000BC6FB6C3BEF3B5C3BDF30001F2EC15F04B
:10342000C8DC020167D00201FF5308E01E0E030151
:10343000C26F0001A6EC0AF024D0020104016FA3C0
:103440000CD053C4BCF354C4BDF3000196DC02C0DD
:10345000B6F301C0B5F30BD0040154C4BCF353C49C
:10346000BDF300018ADC02C0B6F301C0B5F3040E5F
:103470000301BC6FB6C3BEF3B5C3BDF30001F2ECEC
:1034800015F0020137D00201FF5308E01F0E0301BF
:10349000C26F0001A6EC0AF002012CD0000103016A
:1034A000BC6B73C4BEF372C4BDF30001F2EC15F043
:1034B000020120D00201FF5304E100019AEC0AF05E
:1034C00009D00301BC6B22C0BEF321C0BDF30001D3
:1034D000F2EC15F00201FF5302E1040EFF6F0AD077
:1034E0001B6A010E0201FB6F05D0020103D0010E21
:1034F0000201FB6F000183EF2CF0F2CF33F0F29C5E
:10350000F29EE824F76AF736250FF66E350EF7229D
:103510000A00F550FA6E0800F55033BCF28C33BE49
:10352000F28EF96EE231EC31F63100320A329D9AB8
:103530007AC3B9F303017A6B9D8AB9C301F0000124
:10354000B0EF1EF09D9A036A03017951560FE96EA0
:10355000030E0320EA6EEFCFB9F39D8A792B7951E0
:103560001E0801E2796BB9C301F00001BEEF1EF045
:103570000301B951010A000115E0040A13E00F0A22
:1035800011E0050A0FE01B0A0DE00A0A0BE0360AFB
:1035900009E01A0A07E00E0A05E06C0A03E0050AD2
:1035A00001E004D0010E016E03D000D0000E016EC8
:1035B000E2EF1EF0080E0301C06FBF517C19006ED0
:1035C0000050010BC16FD8907D337C33D890BF334E
:1035D000C15304E0010E7C1BA00E7D1BC02FEDD754
:1035E0000001000C0301B951500A000103E0050A73
:1035F00004E006D0060E016E05D0010E016E02D069
:10360000000E016E33EF1FF0040E0301BA6F720E4D
:10361000E96EBAC3EAFF87C3EFFF040EBA6F720EFA
:10362000B96F010EB925016E000EBA2101C0E9FF84
:10363000EA6E88C3EFFF89C374F48AC375F48BC341
:1036400076F48CC377F40001ABEF1FF003017651E1
:10365000762B036A160FE96E030E0320EA6EBFC3D2
:10366000EFFF7B2B76513E0801E2766B0001000CE8
:1036700052EC09F0550E0301BF6F0001E7DFFF0EAA
:1036800003017D6F7C6F7EC3BFF30001DFDF7EC36C
:10369000BFF390DF010E0301BF6F0001D7DF010E02
:1036A0000301BF6F000186DF0301BF6B0001CEDFA6
:1036B0000301BF6B00017EDFBAC3BFF3C7DFBAC32C
:1036C000BFF378DF030E0301BC6F7C0EBCC303F0B5
:1036D000E96EBCC3EAFFEFCFBDF3BDC3BFF300018A
:1036E000B5DF030E0301BC6F7C0EBB6F010EBB2563
:1036F000016E000EBC21036E01C0E9FFEA6EEFCF40
:10370000BDF3BDC3BFF30001A1DF03011087AC8A85
:103710009D880001000C87C36EF488C36FF4B7EF77
:103720001FF0040EEA6E380EE96E0301C26BC46B23
:103730002D0EC36F00018BEC0AF0BDEF1BF00301EF
:10374000BB6BBA6BBB51000812E3D890BA35026E5E
:10375000BB35036E0250510FE96E000E0320EA6E76
:10376000EC6AED52EF6ABA2BD8B4BB2BEBD7000151
:10377000BEEF1BF065EC10F0D4D7E1D7000C0A0EB9
:103780000301BA6FBB6BB95303E1000E016E3CD16C
:10379000B951090803E2000E016E36D1B9C338F4FD
:1037A000B9C3C8F30001F3EC09F002C0C4F301C0CF
:1037B000C3F30301BB53D8A425D1BA07BA5303E11D
:1037C000BBC301F021D1FF0EA96F060ECC6FCE6BEB
:1037D000CD6BD06BCF6BD16B00012FEC07F0020EDD
:1037E0000301CC6FC4C3CEF3C3C3CDF3030ED06FBC
:1037F000E80ECF6F7D0ED16F00012FEC07F0060EA3
:103800000301CC6FCE6BCD6BD06BCF6BD16B000156
:103810002FEC07F0800E0301C325C86F000EC421F2
:10382000C96FCB6B510ECA6F020ECC6FC9C3CEF3FA
:10383000C8C3CDF3CBC3D0F3CAC3CFF3800ED16FCF
:1038400000012FEC07F0060E0301CC6FCE6BCD6BA1
:10385000D06BCF6BD16B00012FEC07F00301C3C31A
:10386000C8F3010EC425C96F020ECC6FC9C3CEF3D5
:10387000C3C3CDF3D06BD10ECF6F800ED16F0001DB
:103880002FEC07F0060E0301CC6FCE6BCD6BD06B27
:10389000CF6BD16B00012FEC07F0800E0301C32525
:1038A000C86F010EC421C96F020ECC6FC9C3CEF31D
:1038B000C8C3CDF3010ED06F510ECF6F800ED16F04
:1038C00000012FEC07F0060E0301CC6FCE6BCD6B21
:1038D000D06BCF6BD16B00012FEC07F00301C3C39A
:1038E000C8F3020EC425C96F020ECC6FC9C3CEF354
:1038F000C3C3CDF3010ED06FD10ECF6F800ED16F49
:1039000000012FEC07F0A9C3C0F3FF0E0301A96F5C
:10391000C4C3C2F3C3C3C1F37D0EC66F030EBF6F32
:10392000E80EBE6FC791C2C303F0C151C12BD8B41A
:10393000C22BC86F03C0C9F3030ECA6F03C0CCF318
:10394000C8C3CBF3CE6FC50ECD6F010ECF6F000194
:10395000BBEC06F00301BFC303F0BE51BE2BD8B4CD
:10396000BF2BE96E03C0EAFFEFCFBDF3BC2BC551FF
:10397000BD5D02E0C78102D0C62FD5D7C7A101D057
:1039800019D7C66B800EC325C16F000EC421C26F4C
:10399000C96B510EC9C3BFF3BE6FBC6BC791C2C325
:1039A00003F0C151C12BD8B4C22BC86F03C0C9F3F7
:1039B000030ECA6F03C0CCF3C8C3CBF3CE6FC50EE2
:1039C000CD6F010ECF6F0001BBEC06F00301BFC34A
:1039D00003F0BE51BE2BD8B4BF2BE96E03C0EAFF83
:1039E000EFCFBDF3BC2BC551BD5D02E0C78102D056
:1039F000C62FD5D7C7B105D0010EBB6FBBC301F031
:103A000003D0D8D6BBC301F00001000C170E030190
:103A1000C16F0001C9EC0AF0040E0301126F0B0E16
:103A20000201FB6F0001000C52EC09F0550E03017E
:103A3000BF6F00010BDEFF0E03017D6F7C6F010E77
:103A4000BF6F000103DE010E0301BF6F0001B2DD95
:103A5000020E0301BF6F0001F9DD020E0301BF6F0B
:103A60000001A8DD0301BF6B0001F0DD0301BF6BA6
:103A70000001A0DD0301BA6B010EB96F030EBC6F2C
:103A8000B90EBCC303F0E96EBCC3EAFFEFCFBDF3D0
:103A9000BDC3BFF30001DADD030E0301BC6FB90E35
:103AA000BCC303F0E96EBCC3EAFFEFCFBDF3BDC3F7
:103AB000BFF300017FDD030E0301BC6FB90EBB6FC6
:103AC000010EBB25016E000EBC21036E01C0E9FF93
:103AD000EA6EEFCFBDF3BDC3BFF30001B7DD030E48
:103AE0000301BC6FB90EBB6F010EBB25016E000E4A
:103AF000BC21036E01C0E9FFEA6EEFCFBDF3BDC389
:103B0000BFF3000157DD030E0301BC6F7C0EBCC385
:103B100003F0E96EBCC3EAFFEFCFBDF3BDC3BFF353
:103B2000000194DD030E0301BC6F7C0EBB6F010E20
:103B3000BB25016E000EBC21036E01C0E9FFEA6ED9
:103B4000EFCFBDF3BDC3BFF3000180DD03011087DC
:103B5000AC8A9D880001E5EF1FF00301BA6BBB6BD7
:103B6000000152EC09F0550E0301BF6F00016EDD3C
:103B7000FF0E03017D6F7C6FB9C3BFF3000166DDEB
:103B8000B9C3BFF317DD0301B951050804E1160EEF
:103B9000BB6F920EBA6F030EC06FBA0EE96EC0C350
:103BA000EAFFEFCFBCF3BCC3BFF300014FDDBCC3E2
:103BB000BFF300DD030E0301C06FBA0EBF6F010E2D
:103BC000BF25016E000EC02101C0E9FFEA6EEFCFF4
:103BD000BCF3BCC3BFF3000139DDBCC3BFF3EADCF7
:103BE0000301BE6B010EBD6F030EC06FBD0EE96E0B
:103BF000C0C3EAFFEFCFBCF3BCC3BFF3000126DDB7
:103C0000BCC3BFF3D7DC030E0301C06FBD0EBF6F93
:103C1000010EBF25016E000EC02101C0E9FFEA6E52
:103C2000EFCFBCF3BCC3BFF3000110DDBCC3BFF3D7
:103C3000C1DC0301806B020E7F6F0001EFEF1FF00C
:103C400052EC09F0550E0301BF6F0001FFDCFF0EBF
:103C500003017D6F7C6F320EBF6F0001F7DC320E07
:103C60000301BF6F0001A6DC060E0301BF6F000158
:103C7000EDDC060E0301BF6F00019CDC0301BF6B8E
:103C80000001E4DC0301BF6B000194DC040E0301BE
:103C9000BB6F720EE96EBBC3EAFFEFCFB9F3B9C3D6
:103CA000BFF30001D3DCB9C3BFF384DC040E03010E
:103CB000BB6F720EBA6F010EBA25016E000EBB21EA
:103CC00001C0E9FFEA6EEFCFB9F3B9C3BFF300015A
:103CD000BDDCB9C3BFF36EDC74C4BFF3B7DC74C41E
:103CE000BFF368DC75C4BFF3B1DC75C4BFF362DC3D
:103CF00076C4BFF3ABDC76C4BFF35CDC77C4BFF340
:103D0000A5DC77C4BFF356DC030E0301BB6F7C0E4A
:103D1000BBC303F0E96EBBC3EAFFEFCFBCF3BCC388
:103D2000BFF3000193DC030E0301BB6F7C0EBA6F7F
:103D3000010EBA25016E000EBB21036E01C0E9FF22
:103D4000EA6EEFCFBCF3BCC3BFF300017FDC03011D
:103D50001087AC8A9D880001FBEF1FF097EF1AF0E7
:103D600001C0B5F30301B553D8B464D1B551B5075B
:103D7000000AD8B45FD10001A2EF1AF001C0B7F376
:103D800003011451000113E0010A18E0030A36E0B0
:103D9000010A48E0070AD8B479D0010AD8B496D00D
:103DA000030AD8B4ABD0010AD8B43ED13FD1030145
:103DB000B751550802E1010E146F3BD1B7C3B9F3F7
:103DC000B8EF1AF0015210E0B7C37EF3FF0E030103
:103DD0007D6F7C6FB7C3BFF30001DAEC1AF0020EFF
:103DE0000301146F0AD000010301146B8E2BD8B4A9
:103DF0008F2B000169EC09F003011BD10301866BD5
:103E0000856B030EBA6F850EE96EBAC3EAFFB7C3BE
:103E1000EFFFB7C3BFF30001DAEC1AF0030E0301A2
:103E2000146F07D1030E0301BA6F850EB96F010E2F
:103E3000B925016E000EBA2101C0E9FFEA6EB7C3D1
:103E4000EFFFB7C3BFF30001DAEC1AF003018553AB
:103E500005E1865303E1050E146F17D07EC3B9F355
:103E60000001F2EF1AF001500301855D06E186536F
:103E700004E1040E146F8D6B08D0146B8E2BD8B434
:103E80008F2B000169EC09F00301D3D003018553A6
:103E900002E1865314E0B7C3BFF30001DAEC1AF075
:103EA00003018D518D2B036A870FE96E030E0320EA
:103EB000EA6EB7C3EFFF8551D8B4860785078553EF
:103EC00004E1865302E1050E146FB3D0030E030123
:103ED000BA6F7C0EBAC303F0E96EBAC3EAFFEF50C3
:103EE000B75D03E1060E146F08D0146B8E2BD8B4A7
:103EF0008F2B000169EC09F003019BD0030E030135
:103F0000BA6F7C0EB96F010EB925016E000EBA2191
:103F1000036E01C0E9FFEA6EEF50B75D09E0146B74
:103F20008E2BD8B48F2B000169EC09F0030181D0EE
:103F30007E51500A00010DE0050A17E0690A21E0F0
:103F40003D0A42E0040A46E0370A54E0680A58E0B5
:103F500067D004EF1BF00301BA6B000138EC1BF0D3
:103F6000010E0301156F00015BD08BEF1BF0030105
:103F7000BA6B000138EC1BF0010E0301156F000154
:103F80004FD0BAEC1BF00301B891010EB66FB651D9
:103F900009080EE3B6C3B9F30001BFEC1BF00152F0
:103FA00004E10301B881000131DD0301B62BEFD735
:103FB000000EB8B1010EBA6F000138EC1BF0010E13
:103FC0000301156F00012CD02FD5010E0301156FD1
:103FD000000126D0050E0301B96F0001BED5030113
:103FE0001099836B826B846B010E816F020E156FCB
:103FF000000116D025D6010E0301156F000110D067
:104000009EEC0DF029C0B9F3BFEC1BF00301BA6BB5
:10401000000138EC1BF0010E0301156F000100D008
:10402000070E0301146F05D0030103D00301146BC5
:1040300000D09CD600019DEF21F00301BD51016A23
:10404000BC5D03E2BCC300F00CD0006A080EBE6F7A
:10405000BC370036BD51005CD8B0006E0136BE2FB3
:10406000F7D70001000C220E0301C26F0001A6EC7D
:104070000AF0BBC3BCF30A0E0301BD6F0001DDDF14
:1040800000C0BBF3036A0301BB51060FE96E000ECB
:104090000320EA6EEFCFF7F202010001000C0301EA
:1040A0008451000107E0010AD8B47ED0030AD8B4D5
:1040B0009FD0C0D081C3BBF3D6DF29500301815DFF
:1040C00041E1835313E182517F0810E3E80E82251A
:1040D000B66F030E8321B76FB6C3E9FFB7C3EAFF1C
:1040E000EFCFB8F3822BD8B4832B2BD0BC6B510EFF
:1040F000BB6F8251BB25BD6F8351BC21BE6F800E4B
:10410000BD5DB66F000EBE59B76FB6C3E9FFB7C34A
:10411000EAFFEFCFB8F3822BD8B4832B8351010889
:1041200010E2FF0A03E182517F080BE28151080887
:1041300004E3812B836B826B04D0010E846F836B4D
:10414000826B31D081C3C8F30001F3EC09F00301A5
:1041500082510124B96F83510220BA6F030ECA6FD6
:10416000BAC3CCF3B9C3CBF3CE6FB80ECD6F010E8B
:10417000CF6F0001BBEC06F00301822BD8B4832B78
:104180008351010810E2FF0A03E182517F080BE22C
:104190008151080804E3812B836B826B04D0010EEC
:1041A000846F836B826B49D00A0E0301BB6F0001E1
:1041B0005ADFD89003018235026E8335036E0250B8
:1041C000680FB66F040E0320B76FB6C3E9FFB7C31D
:1041D000EAFFEFCFB8F3822BD8B4832B835303E1EC
:1041E0008251090804E2020E846F836B826B25D032
:1041F0000B0E0301BB6F000136DF040E0301BC6F21
:10420000720EBB6F8251BB25B66F8351BC21B76F55
:10421000B6C3E9FFB7C3EAFFEFCFB8F3822BD8B438
:10422000832B835303E18251050803E21089836BDA
:10423000826B03D00301108900D0B8C301F00001E4
:104240005BEF21F0B9C3BFF326EC1BF0030110B7FD
:1042500003D01087AC8A9D880001000CF29CF29E6E
:10426000F2BEFDD703011551000105E0010A04E08B
:10427000030A1EE05DD05CD0060E1E6E03017B5368
:1042800015E1770E006E002EFED700D000017FEC06
:1042900009F003017E515A0809E1F29CF29EF2BE38
:1042A000FDD7266A010E276E286EFF00000140D060
:1042B000060E1E6EF4D601C0B5F3B5C3BFF3DAEC3B
:1042C0001AF0B5C3B9F3BEDF03017F2BD8B4802B3E
:1042D0007B513E0804E310B902D00001EBD710A9CE
:1042E00025D0030EB76F7C0EB7C303F0E96EB7C3DA
:1042F000EAFFEFCFB8F3B8C3B9F30001A3DF030EB1
:104300000301B76F7C0EB66F010EB625016E000E6D
:10431000B721036E01C0E9FFEA6EEFCFB8F3B8C36F
:10432000B9F300018FDF010E0301156F000100D00A
:10433000C00EF2129EEF21F011D590D785EF2CF030
:1043400012B801D01AD01298115215E00201F9AF3B
:1043500004D0000112D00ED00201030110A103D03D
:1043600000010BD0030111C010F00201F98F03010D
:104370001081000102D00201F99F0001E1EF2AF053
:104380001B50010A0BE0030A0CE0010A0DE0070ACA
:104390000EE00C0A15E0010A13E018D0020E1B6EA5
:1043A0001CD0030E1B6E19D0040E1B6E16D0050E0A
:1043B0001B6E140E0301B66F0001AAEC09F00DD0BC
:1043C000010E0201FB6F1B6A000107D0040E0201FF
:1043D000FB6F010E1B6E000100D0CBEF2AF0040131
:1043E00039513A110BE00D0E0301C16F0001C9EC08
:1043F0000AF0080E0301126F0AD00401090E03012E
:10440000C16F0001C9EC0AF0040E0301126F000134
:10441000000C1B500D0A11E0030A0FE0010A0DE029
:104420001D0A0BE0060A09E0020A07E00F0A05E090
:10443000020A03E0060A01E001D01ED029C0B9F348
:10444000BFEC1BF001520EE106EC1DF0040E03015F
:10445000B56FFA0EC26F0001D2EC0AF00301B52F5E
:10446000F8D70001292A2950090802E2010E296E15
:104470001FEC0AF0B4DF00D01B6ACBEF2AF04F0E1E
:104480000301B56F0401395305E13A5303E1000E0E
:10449000016E11D0036A0301B551E80FE96E030EF6
:1044A0000320EA6EEF5204E1B5070401F3D70301DC
:1044B000B5C301F0040100018FEF22F00301B56BD9
:1044C0000401395305E13A5303E1000E016E23D094
:1044D00045C4FDF244C4FCF243C4B5F3036A0301CE
:1044E000B551E80FE96E030E0320EA6EEF5210E1BA
:1044F000B52B04016FA103D0036A190E02D0036A21
:10450000050E0201FC270350FD230401E7D7030138
:10451000B5C301F00401000192EF22F0B0D701C051
:104520001CF0CCD701C01DF01DC013F3036A0301BA
:104530001351E80FE96E030E0320EA6EEFCFFAF293
:1045400002010001000C06EC14F004016E510001A0
:1045500005E0010A08E0030A0BE017D04BC4B8F3EA
:104560004AC4B7F330D04FC4B8F34EC4B7F32BD01E
:10457000640ED88004014A550301B76F000E040190
:104580004B550301B86F00011ED00401395302E1FD
:104590003A5314E04DC4CEF34CC4CDF30301D06BB9
:1045A000640ECF6F3AC4D2F339C4D1F30001CAEC20
:1045B0000CF002C0B8F301C0B7F304D00301B86B2C
:1045C000B76B000100D00301B7C301F0B8C302F01C
:1045D0000001ECEF22F0B7D702C0B6F301C0B5F38B
:1045E0000301BC6BB6C3BEF3B5C3BDF30001F2EC6F
:1045F00015F022EF23F01B50070A03E00E0A1BE020
:1046000020D0040139513A1109E0000187DF080E7A
:104610001B6E0A0E0201FB6F0DD00401090E03018F
:10462000C16F0001C9EC0AF0020E0301126F0B0EFC
:104630000201FB6F10D0010E0201FB6F1B6A0BD051
:104640000001C9D70B0E0201FB6F070E1B6E040E93
:104650000301126F02010001CBEF2AF01B50000A88
:1046600001E009D00A0E1B6E180E0301C16F000194
:10467000C9EC0AF00BD0240E0301C16F0001C9EC94
:104680000AF0020E0301126F000100D0CBEF2AF0F6
:10469000B90E0301CC6FCE6BCD6BD06BCF6BD16BF2
:1046A00000012FEC07F0950E006E002EFED700D013
:1046B000B9EF23F094948B94CA94BD6A92EF23F0DF
:1046C0003D6AF2BC3D8CF29CF2BE3D8EF29E03012F
:1046D000D96B000176EC05F03DBCF28C3DBEF28E4C
:1046E00011EC08F03D6AF2BC3D8CF29CF2BE3D8EAE
:1046F000F29E0301BF6B010EC06F00019AEC05F042
:104700003DBCF28C3DBEF28E010E0301B76F030E6D
:10471000B86FB96B0A0EBA6F000163EC08F0E7ECF2
:1047200005F0C8D7959E8C8EBAEF23F0C26ABDEF14
:1047300023F0AC6AAB6A948C948EBEEF23F0F29CAB
:10474000F29E95908C9095928C9295948C949596DF
:104750008C9695988C98928893869684928492866B
:10476000928A968096829382938C938E93948A8475
:104770008FD7A6D7FBEC07F0D9D7DBD7010E286E71
:104780000300C8EF23F029C0B9F3BFEC1BF0D7D763
:10479000CBEF2AF050C420F0010E0201FA6FD8903E
:1047A0002034026E036A03360250510FE96E000E88
:1047B0000320EA6EECCF03F0ED52EFCFFCF203C022
:1047C000FDF20001000C0401395303E13A5301E109
:1047D0003ED00301B55316E01C50135D0FE2132BBE
:1047E00004016FA103D0036A190E02D0036A050EFB
:1047F0000201FC270350FD2303D003011F840201A3
:1048000015D0030113511D5C0FE2130704016FA1C2
:1048100003D0036A190E02D0036A050E0201FC5F81
:104820000350FD5B03D003011F840201036A0301EF
:104830001351E80FE96E030E0320EA6EEFCFFAF290
:104840000201FA53D8A402D00401C3D70401000125
:10485000000C0201FF6B0001000C0301B5510001C7
:1048600005E0010A0AE0030A0FE015D00F0E03016C
:10487000C16F0001C9EC0AF016D0100E0301C16F20
:104880000001C9EC0AF00FD0130E0301C16F000143
:10489000C9EC0AF008D00301BC6BBE6BB5C3BDF315
:1048A0000001F2EC15F0000C1B50DF0FD8B06FD1F7
:1048B000210FC9EF25F0040139530DE13A530BE103
:1048C000090E0301C16F0001C9EC0AF0020E0301D9
:1048D000126F00015CD100015DDF150E0301B66FA0
:1048E0000001AAEC09F0090E1B6E51D104013A53E4
:1048F00005E139510201FA5D0AE204010201FA2BD5
:10490000205202E0200602D0FF0E206E08D01E0EBC
:104910000301B66F0001AAEC09F039D10201D89069
:104920002034026E036A03360250510FE96E000E06
:104930000320EA6EECCF03F0ED52EFCFFCF203C0A0
:10494000FDF2150E0301B66F0001AAEC09F01FD1AC
:10495000190E0301C16F0001C9EC0AF00B0E1B6EAA
:1049600016D10B0E0301C16F0001C9EC0AF00E0E47
:104970001B6E0DD1170E1B6E030E0301C16F0001DC
:10498000C9EC0AF004D10C0E0301B66F0001AAECC9
:1049900009F0110E1B6EFBD0110E0301B66F000162
:1049A000AAEC09F0130E1B6EF2D00F0E0301B66FC6
:1049B0000001AAEC09F0150E1B6EE9D0030E0301ED
:1049C000C16F0001C9EC0AF0170E1B6EE0D0080E93
:1049D0000301C16F0001C9EC0AF0180E1B6ED7D09D
:1049E0000301109304016FA103D00301108304019C
:1049F000070E0301C16F0001C9EC0AF01A0E1B6E0D
:104A0000C6D01E0E1B6E200E0301C16F0001C9EC43
:104A10000AF0BDD0200E0301C16F0001C9EC0AF0FD
:104A20001E0E1B6EB4D00A0E0301C16F0001C9EC4B
:104A30000AF0200E1B6EABD00A0E1B6E180E03017F
:104A4000C16F0001C9EC0AF0A2D0010E0301B56FDD
:104A50000001B9DE280E0301126F0001FADE97D0C3
:104A60001FB213D0212AD8B4222A22C0D7F321C0E2
:104A7000D6F30301D96B180ED86F0001F1EC0FF0DB
:104A800000C021F003C022F00BD0232A23C0BCF3C6
:104A90003C0E0301BD6F00011DEC20F000C023F0AF
:104AA00076D01FB21CD0212AD8B4222A04016FA3C9
:104AB00011D022C0D7F321C0D6F30301D96B0D0E5C
:104AC000D86F0001F1EC0FF000C021F003C022F01C
:104AD00005D004011F0E2116226A000111D0232ADD
:104AE00004016FA303D01F0E23160BD023C0BCF309
:104AF0000D0E0301BD6F00011DEC20F000C023F07E
:104B00000401000144D0212AD8B4222A40D0232A0B
:104B100023501E0801E2236A23C0B5F39EDE37D07E
:104B2000030110A308D01093050EC16F0001C9EC5A
:104B30000AF007D003011083060EC16F0001C9EC13
:104B40000AF0FF0E0301126F000121D0030110755E
:104B500010A507D0210EC16F0001C9EC0AF006D0E4
:104B600003010C0EC16F0001C9EC0AF010D02450F3
:104B7000040802E3242A02D0010E246EF00E030181
:104B8000126F130EB66F0001AAEC09F000D0CBEF44
:104B90002AF0F2CF33F0F29CF29EE824F76AF7365F
:104BA000BD0FF66E4B0EF7220A00F550FA6E0800A4
:104BB000F55033BCF28C33BEF28EF96EB648B6486F
:104BC0008E4B8E4B8E4B8E4B8E4B8E4B4A4AEC4807
:104BD00050496249EC488E4B74498E4B864998493E
:104BE000604AAA49A24ABC49064BCE49E0490E4B4D
:104BF000024A204B144A4C4B264A6E4B384A080E48
:104C00001B5CE70FD8B03ED1190F44EF27F002012B
:104C1000FA51010808E2FA07203C01D002D0202A0C
:104C200001D0206A08D01E0E0301B66F0001AAEC65
:104C300009F028D10201D8902034026E036A0336AD
:104C40000250510FE96E000E0320EA6EECCF03F024
:104C5000ED52EFCFFCF203C0FDF2150E0301B66F6B
:104C60000001AAEC09F00ED11E0E1B6E200E0301EE
:104C7000C16F0001C9EC0AF005D1030110930401D2
:104C80006FA103D0030110830401070E0301C16F5C
:104C90000001C9EC0AF01A0E1B6EF4D00301109348
:104CA00004016FA103D0030110830401070E030167
:104CB000C16F0001C9EC0AF01A0E1B6EE3D0080E9A
:104CC0000301C16F0001C9EC0AF0180E1B6EDAD0A7
:104CD000030E0301C16F0001C9EC0AF0170E1B6E31
:104CE000D1D00B0E0301C16F0001C9EC0AF00E0E0A
:104CF0001B6EC8D0110E0301B66F0001AAEC09F0BB
:104D0000130E1B6EBFD00C0E0301B66F0001AAEC90
:104D100009F0110E1B6EB6D00E0E0301B66F000126
:104D2000AAEC09F0100E1B6EADD00B0E0301C16F83
:104D30000001C9EC0AF00E0E1B6EA4D0190E03017F
:104D4000C16F0001C9EC0AF00B0E1B6E9BD0180E50
:104D50000301C16F0001C9EC0AF00A0E1B6E92D06C
:104D60000A0E0301C16F0001C9EC0AF0200E1B6E90
:104D700089D00301B56B000126DD6BDD83D01FB246
:104D80000CD02150221005E02150D8B42206210673
:104D900003D0226A170E216E06D0235202E02306AA
:104DA00002D03B0E236E6ED01FB214D021502210C1
:104DB00005E02150D8B4220621060BD004016FA3D0
:104DC00004D0226A0C0E216E03D0226A1F0E216EBF
:104DD00000010DD0235202E0230609D004016FA385
:104DE00003D01F0E236E02D00C0E236E00014AD09A
:104DF0002150221005E02150D8B42206210604D00B
:104E0000070E226ED80E216E3DD0230623501E08B9
:104E100002E21E0E236E23C0B5F31FDD33D0030163
:104E200010A308D01093050EC16F0001C9EC0AF061
:104E300007D003011083060EC16F0001C9EC0AF010
:104E400021D00301107510A507D0210EC16F0001FC
:104E5000C9EC0AF006D003010C0EC16F0001C9ECC9
:104E60000AF010D02450010802E2240602D0050EF8
:104E7000246EF00E0301126F130EB66F0001AAEC40
:104E800009F000D0CBEF2AF0F2CF33F0F29CF29E83
:104E9000E824F76AF736B30FF66E4E0EF7220A00D3
:104EA000F550FA6E0800F55033BCF28C33BEF28E2A
:104EB000F96E724D0E4C604D4E4D0E4C844E3C4D75
:104EC000844E2A4D184D7E4D064DA84DF44CF04DA4
:104ED000E24CD04C0A4EBE4C1E4E9C4C424E7A4C7C
:104EE000644E684C0201576B128EFF0E0301126F65
:104EF000000170EF2AF0040145510301C35D28E36E
:104F000005E1040144510301C25D22E3C351985DF0
:104F10001FE303E1C251975D1BE3C3C3CCF3C2C3DC
:104F2000CBF30001B4EC10F001C0C4F3036A030139
:104F3000C451E80FE96E030E0320EA6EEF5208E059
:104F4000036AC451E80FE96E030E0320EA6EEF0610
:104F5000000114EC10F0030190510401465D05E1DD
:104F6000030191510401475D06E0000176EC10F069
:104F7000FDEC10F00401000121EF28F0D8900301AE
:104F8000B535026E036A03360250510FE96E000E0A
:104F90000320EA6EECCF03F0ED52EFCFB6F303C07F
:104FA000B7F3D890B535026E036A03360250510F3D
:104FB000E96E000E0320EA6EEC6AED52EF6A04011E
:104FC0003951D8B43A0739073EC4D0F33DC4CFF3C2
:104FD0003CC4CEF33BC4CDF30301D46BD36BB7C356
:104FE000D2F3B6C3D1F30001A9EC12F003C03EF432
:104FF00002C03DF401C03CF400C03BF4040139514F
:105000003A1115E03EC4DFF33DC4DEF33CC4DDF3EA
:105010003BC4DCF33AC4E1F339C4E0F30001A6EC8D
:105020000CF001C049F400C048F406D004013CC4AF
:1050300049F43BC448F40001B7C3C3F3B6C3C2F399
:105040005AD7B7C3D8F3B6C3D7F3B7C3DAF3B6C3E7
:10505000D9F34DEC0CF003C0C1F302C0C0F301C0A2
:10506000BFF300C0BEF360C4D0F35FC4CFF35EC42F
:10507000CEF35DC4CDF3C1C3D4F3C0C3D3F3BFC378
:10508000D2F3BEC3D1F3A9EC12F003C060F402C0A6
:105090005FF401C05EF400C05DF4C1C3DFF3C0C3C0
:1050A000DEF3BFC3DDF3BEC3DCF30301E16B190E16
:1050B000E06F0001A6EC0CF003C0C1F302C0C0F326
:1050C00001C0BFF300C0BEF342C4D0F341C4CFF36C
:1050D00040C4CEF33FC4CDF3C1C3D4F3C0C3D3F3B4
:1050E000BFC3D2F3BEC3D1F3A9EC12F003C042F4A4
:1050F00002C041F401C040F400C03FF404013A533F
:1051000012E1395101080FE3626B616B62C44FF425
:1051100061C44EF44FC44BF44EC44AF44BC464F41F
:105120004AC463F404D0000106EC14F004015051A9
:105130000301B55DD8B471D0040150510301B55DD0
:1051400007E2B5510401505D0301B86FB96B0BD094
:10515000040150510301B55DFF0A010FB86F010E44
:10516000D8A0E806B96FBB6BB5C3BAF3BA3D05D09A
:10517000BB5303E1BD6BBC6B06D0010EBA25BC6FFF
:10518000000EBB21BD6FB9C303F0B851D8B4B90745
:10519000B807031034E0D890BA35026EBB35036E01
:1051A0000250510F016E000E032203C0C3F3D890CA
:1051B000BC35026EBD35036E0250510FE96E000E14
:1051C0000320EA6EECCF03F0ED52EFCFC4F3C3C37C
:1051D000EAFF01C0E9FF03C0ECFFED52C4C3EFFFDB
:1051E000BDC3BBF3BCC3BAF3BC3D05D0BD5303E1A3
:1051F000BD6BBC6B03D0BC2BD8B4BD2BC4D7D8902F
:10520000BA35026EBB35036E0250510FE96E000EC7
:105210000320EA6EEC6AED52EF6A0401505302E09B
:10522000500702D0FF0E506F000130EF2AF01FEC44
:105230000AF0E6EC15F0EFEC21F00B0E0201FB6F2B
:10524000000146EF2AF0050E1B5CE40FD8B048D1F0
:105250001C0F72EF2AF0040139513A110DE00001E0
:105260008EEC22F0080E1B6E280E0301126F0A0E40
:105270000201FB6F0DD00401090E0301C16F000193
:10528000C9EC0AF0020E0301126F0B0E0201FB6F54
:10529000000126D1040139530DE13A530BE1090E07
:1052A0000301C16F0001C9EC0AF0020E0301126F85
:1052B000000116D10001CAEC23F0150E0301B66FF0
:1052C0000001AAEC09F00C0E1B6E0AD1140E0301AA
:1052D000B66F0001AAEC09F0060E1B6E01D1140E88
:1052E0000301B66F0001AAEC09F00F0E1B6EF8D097
:1052F000170E0301B66F0001AAEC09F0226A76C40A
:1053000021F077C423F01F92120E1B6EE9D01FB25A
:1053100004D021C076F41F820AD023C077F4040E93
:105320000301126F0D0EB66F0001AAEC09F0D8D080
:10533000180E0301B66F0001AAEC09F073C422F045
:1053400072C421F0160E1B6ECBD022C073F421C0A4
:1053500072F4040E0301126F1A0EB66F0001AAEC6C
:1053600009F0BED0170E0301B66F0001AAEC09F0D8
:1053700004016FA306D0226A74C421F075C423F01F
:1053800005D0226A75C421F074C423F01F92140E54
:105390001B6E0001A5D01FB20BD004016FA303D078
:1053A00021C074F402D021C075F41F8211D0000115
:1053B00004016FA303D023C075F402D023C074F49A
:1053C000040E0301126F190EB66F0001AAEC09F06A
:1053D000000186D087D56EC423F023C0B5F32DEC31
:1053E00024F0190E1B6E7CD0030110A307D0060E0B
:1053F000C16F0001C9EC0AF006D00301050EC16FB0
:105400000001C9EC0AF01B0E1B6E6AD0010E246E5F
:105410001BC055F21F0E1B6EF00E0301126F130E10
:10542000B66F0001AAEC09F05BD0010E0201FB6F20
:105430001B6A000155D004013A5101080CE303E155
:105440003951000808E3160E0301B66F0001AAECFB
:1054500009F00D0E1B6E000143D020C0B5F38ED5B0
:10546000230E0301C16F0001C9EC0AF0080E03010D
:10547000126F000135D0BAEC1BF029C0B9F3BFECB4
:105480001BF0015201E0D3D606EC1DF029D023C059
:105490006EF49EEC0DF0010E0301126F000120D09E
:1054A00004016F91030110A303D004016F81030174
:1054B00000019EEC0DF0010E0301126F000110D0EF
:1054C00004016F93030110A503D004016F8303014E
:1054D00000019EEC0DF0010E0301126F000100D0DF
:1054E000CBEF2AF0F2CF33F0F29CF29EE824F76A79
:1054F000F7360F0FF66E550EF7220A00F550FA6ECA
:105500000800F55033BCF28C33BEF28EF96ECC52EB
:105510007654E054E054E0545652945236545A545F
:10552000DE527654E054F0520E5364539653305387
:105530004A53D453D6538E54E853A054E054C05425
:105540000C54E0542A541050040A0FE0050A10E0ED
:10555000090A11E00A0A12E0120A12E0300A13E006
:10556000600A14E0C00A15E015D0129EC0EF21F0C9
:10557000129E09EF22F0129EFBEF22F02EEF23F095
:10558000129EC3EF23F0129E54EF24F0129EFFEF01
:1055900025F059D600D0E8EF2AF00201FB51010AAC
:1055A000000105E0030A03E0010A01E001D005D093
:1055B000010E0201FB6F000100D0F0EF2AF0A0EF16
:1055C00021F0030110A107D0280E126F0001BBD7F4
:1055D000030110911F98125304E11B6A0001DDD7EB
:1055E0000301000190EF2CF0F86A9F80A2829F9A3D
:1055F0009F98D08E328EEA6AE96AC150C00B0F09BB
:10560000C16E070EB46E140E056EED0E066E480EDA
:10561000076EE60E086E6E0E096E4B0E0A6E2F0EAA
:105620000B6EAF0E0C6E680E0D6EEF0E0E6E6B0EE7
:105630000F6E106A116A1298128C1E6A129E1F90C9
:105640001F961F981F9A1F9E870E0201586FEB0E20
:10565000596F820E5A6FA70E5B6F5C6F820E5D6F83
:105660005E6FE60E5F6F870E606FCD0E616F8A0E04
:10567000626FA70E636FA50E646FEB0E656F850EEC
:10568000666F676B8E0E686FA30E696F850E6A6F0B
:105690006B6B6C6B6D6F8F0E6E6F6F6B706B6F0ED5
:1056A000716F820E726F736B6F0E746F820E756FF7
:1056B000850E766F8F0E776FCD0E786F8A0E796FAD
:1056C000800E7A6F7B6BA50E7C6F850E7D6F820ED0
:1056D0007E6F7F6BA70E806F8A0E816FCE0E826FFA
:1056E000836BA70E846F820E856FEB0E866F2F0E75
:1056F000876F886B8A0E896F8E0E8A6F8B6BCE0ECA
:105700008C6FEB0E8D6F870E8E6FEB0E8F6F850E8D
:10571000906F8E0E916F8F0E926F870E936F946BBA
:10572000A50E956FCD0E966F976B986B2F0E996F98
:10573000CE0E9A6F9B6B9C6BE30E9D6FA50E9E6FBA
:105740009F6BA70EA06F820EA16FA26F480EA36F72
:105750002F0EA46FCE0EA56FE30EA66F820EA76F5D
:10576000020EA86FED0EA96FAA6F020EAB6F8A0E24
:10577000AC6F6F0EAD6F870EAE6F8C0EAF6FA70E56
:10578000B06F820EB16FB26F6E0EB36FA70EB46FB3
:10579000820EB56FB66F4B0EB76F6F0EB86F820E7D
:1057A000B96FEB0EBA6FE30EBB6FCD0EBC6F8A0EF6
:1057B000BD6FCE0EBE6F8E0EBF6F8F0EC06FEB0E25
:1057C000C16F870EC26FA50EC36FC46F850EC56F04
:1057D000ED0EC66FA50EC76FCE0EC86FEB0EC96F6C
:1057E000870ECA6FA70ECB6FCD0ECC6F2F0ECD6F6D
:1057F000EB0ECE6FCF6B8F0ED06FEB0ED16F870E8F
:10580000D26FCE0ED36F4F0ED46FA70ED56FEB0EA7
:10581000D66F820ED76FCE0ED86F800ED96FEB0E7B
:10582000DA6F6F0EDB6F4F0EDC6FA70EDD6F2F0E82
:10583000DE6FDF6BCD0EE06F2F0EE16F8F0EE26F2C
:10584000E36BCE0EE46F8E0EE56F8A0EE66FA70E49
:10585000E76FE86F2F0EE96FA50EEA6FEB0EEB6FA7
:10586000A70EEC6F820EED6FEE6F2F0EEF6FEF0E47
:10587000F06FF16FF26FF36F010EFB6FF989B70EE6
:105880000301096F0201F99BF99D0A0E03010E6FD6
:10589000020E0F6F10910A0E116F146B156B766B61
:1058A000776B10977A6B7B6B8E6B8F6B9B6BA46B9C
:1058B000B16BB26B280EB46F129A0001E7EF0AF0D9
:1058C00092EC09F025EF0BF0015213E003011253A3
:1058D000D8A412070201FF53D8A4FF070552D8A489
:1058E0000506000133EF0BF00301B453D8A4B4074D
:1058F00000014DEF0BF0015202E065EF0BF097EF66
:1059000015F017EF17F09CEF21F012BA08D0030141
:10591000B453D8A402D0000102D003D000014FD666
:0859200003010001CDD70300D3
:021000000100ED
:020000040030CA
:0E00000000821F1E008181000FC00FE0004033
:00000001FF
;PIC18F4520
